:100000000C9434000C943E000C943E000C943E0082
:100010000C943E000C943E000C943E000C943E0068
:100020000C943E000C943E000C943E000C943E0058
:100030000C943E000C943E000C943E000C943E0048
:100040000C943E000C943E000C943E000C943E0038
:100050000C943E000C943E000C943E000C943E0028
:100060000C943E000C943E0011241FBECFEFD8E04C
:10007000DEBFCDBF0E9440000C9469000C940000CC
:100080004CE34AB940E244B98823E9F0222311F055
:100090009923D9F084E01BB89BB19BB99BB19BB964
:1000A0009BB1892B8BB989B186FB332730F989B194
:1000B000982F991F9927991F83B1282F217083B1F9
:1000C0008695817019F7911102C03111E3CF80E05C
:0600D000E2CFF894FFCF1F
:00000001FF
