:100000000C9434000C943E000C943E000C943E0082
:100010000C943E000C943E000C943E000C943E0068
:100020000C943E000C943E000C943E000C943E0058
:100030000C943E000C943E000C943E000C943E0048
:100040000C943E000C943E000C943E000C943E0038
:100050000C943E000C943E000C943E000C943E0028
:100060000C943E000C943E0011241FBECFEFD8E04C
:10007000DEBFCDBF0E9440000C9469000C940000CC
:100080004CE34AB940E244B9811102C0222331F065
:1000900091111DC031111BC0811119C084E01BB822
:1000A0009BB19BB99BB19BB99BB1892B8BB989B192
:1000B00086FB222720F989B1982F991F9927991F2C
:1000C00083B1382F317083B186958170DDCF80E0A8
:0600D000E6CFF894FFCF1B
:00000001FF
