:100000000C9434000C943E000C943E000C943E0082
:100010000C943E000C943E000C943E000C943E0068
:100020000C943E000C943E000C943E000C943E0058
:100030000C943E000C943E000C943E000C943E0048
:100040000C943E000C943E000C943E000C943E0038
:100050000C943E000C943E000C943E000C943E0028
:100060000C943E000C943E0011241FBECFEFD8E04C
:10007000DEBFCDBF0E9440000C945F000C940000D6
:100080002CE32AB920E224B931E014C090E01BB877
:100090002BB12BB92BB12BB92BB1880F991F880F1E
:1000A000991F822B8BB989B189B183B1817093B1CA
:1000B00096959170992351F3832790E0E8CFF894B7
:0200C000FFCF70
:00000001FF
