:100000000C9434000C943E000C943E000C943E0082
:100010000C943E000C943E000C943E000C943E0068
:100020000C943E000C943E000C943E000C943E0058
:100030000C943E000C943E000C943E000C943E0048
:100040000C943E000C943E000C943E000C943E0038
:100050000C943E000C943E000C943E000C943E0028
:100060000C943E000C943E0011241FBECFEFD8E04C
:10007000DEBFCDBF0E9440000C94BC000C94000079
:100080008CE38AB980E284B920E030E050E040E0BF
:10009000F0E2E1E0F5B96FEF83EC99E06150804068
:1000A0009040E1F700C00000622F6E27332391F1EA
:1000B000211132C070E1511152C080E090E0880FF0
:1000C000880F880F411133C090E06295660F607E03
:1000D0006BB92BB1272B2BB92BB1822B8BB98BB1E1
:1000E000892B8BB929B126FB222720F939B1331F7F
:1000F0003327331F53B1517043B14695417015B842
:100100006FEF83EC99E0615080409040E1F700C0D0
:100110000000C0CF442379F0822F722F7295707F38
:1001200051110FC03111CBCF80E0442369F221116E
:10013000CBCF94E0CACF70E1511103C090E080E0D2
:10014000C4CF222361F0832F8E27880F880F880F5A
:10015000442359F0332309F4B7CF94E0B6CF4423B6
:1001600019F094E088E0B1CF88E0332309F4ACCFF4
:0C017000222309F4A9CFDDCFF894FFCFC3
:00000001FF
